{
  "_format": "hh-sol-artifact-1",
  "contractName": "Faices",
  "sourceName": "contracts/Faices.sol",
  "abi": [
    {
      "inputs": [
        {
          "internalType": "string",
          "name": "baseURI",
          "type": "string"
        }
      ],
      "stateMutability": "nonpayable",
      "type": "constructor"
    },
    {
      "anonymous": false,
      "inputs": [
        {
          "indexed": true,
          "internalType": "address",
          "name": "owner",
          "type": "address"
        },
        {
          "indexed": true,
          "internalType": "address",
          "name": "approved",
          "type": "address"
        },
        {
          "indexed": true,
          "internalType": "uint256",
          "name": "tokenId",
          "type": "uint256"
        }
      ],
      "name": "Approval",
      "type": "event"
    },
    {
      "anonymous": false,
      "inputs": [
        {
          "indexed": true,
          "internalType": "address",
          "name": "owner",
          "type": "address"
        },
        {
          "indexed": true,
          "internalType": "address",
          "name": "operator",
          "type": "address"
        },
        {
          "indexed": false,
          "internalType": "bool",
          "name": "approved",
          "type": "bool"
        }
      ],
      "name": "ApprovalForAll",
      "type": "event"
    },
    {
      "anonymous": false,
      "inputs": [
        {
          "indexed": false,
          "internalType": "uint256",
          "name": "tokenId",
          "type": "uint256"
        }
      ],
      "name": "FaiceMinted",
      "type": "event"
    },
    {
      "anonymous": false,
      "inputs": [
        {
          "indexed": true,
          "internalType": "address",
          "name": "previousOwner",
          "type": "address"
        },
        {
          "indexed": true,
          "internalType": "address",
          "name": "newOwner",
          "type": "address"
        }
      ],
      "name": "OwnershipTransferred",
      "type": "event"
    },
    {
      "anonymous": false,
      "inputs": [
        {
          "indexed": true,
          "internalType": "address",
          "name": "from",
          "type": "address"
        },
        {
          "indexed": true,
          "internalType": "address",
          "name": "to",
          "type": "address"
        },
        {
          "indexed": true,
          "internalType": "uint256",
          "name": "tokenId",
          "type": "uint256"
        }
      ],
      "name": "Transfer",
      "type": "event"
    },
    {
      "inputs": [],
      "name": "MAX_PER_MINT",
      "outputs": [
        {
          "internalType": "uint256",
          "name": "",
          "type": "uint256"
        }
      ],
      "stateMutability": "view",
      "type": "function"
    },
    {
      "inputs": [],
      "name": "MAX_SUPPLY",
      "outputs": [
        {
          "internalType": "uint256",
          "name": "",
          "type": "uint256"
        }
      ],
      "stateMutability": "view",
      "type": "function"
    },
    {
      "inputs": [],
      "name": "PRICE",
      "outputs": [
        {
          "internalType": "uint256",
          "name": "",
          "type": "uint256"
        }
      ],
      "stateMutability": "view",
      "type": "function"
    },
    {
      "inputs": [],
      "name": "_baseTokenURI",
      "outputs": [
        {
          "internalType": "string",
          "name": "",
          "type": "string"
        }
      ],
      "stateMutability": "view",
      "type": "function"
    },
    {
      "inputs": [],
      "name": "_saleActive",
      "outputs": [
        {
          "internalType": "bool",
          "name": "",
          "type": "bool"
        }
      ],
      "stateMutability": "view",
      "type": "function"
    },
    {
      "inputs": [
        {
          "internalType": "address",
          "name": "to",
          "type": "address"
        },
        {
          "internalType": "uint256",
          "name": "tokenId",
          "type": "uint256"
        }
      ],
      "name": "approve",
      "outputs": [],
      "stateMutability": "nonpayable",
      "type": "function"
    },
    {
      "inputs": [
        {
          "internalType": "address",
          "name": "owner",
          "type": "address"
        }
      ],
      "name": "balanceOf",
      "outputs": [
        {
          "internalType": "uint256",
          "name": "",
          "type": "uint256"
        }
      ],
      "stateMutability": "view",
      "type": "function"
    },
    {
      "inputs": [
        {
          "internalType": "uint256",
          "name": "tokenId",
          "type": "uint256"
        }
      ],
      "name": "getApproved",
      "outputs": [
        {
          "internalType": "address",
          "name": "",
          "type": "address"
        }
      ],
      "stateMutability": "view",
      "type": "function"
    },
    {
      "inputs": [
        {
          "internalType": "address",
          "name": "owner",
          "type": "address"
        },
        {
          "internalType": "address",
          "name": "operator",
          "type": "address"
        }
      ],
      "name": "isApprovedForAll",
      "outputs": [
        {
          "internalType": "bool",
          "name": "",
          "type": "bool"
        }
      ],
      "stateMutability": "view",
      "type": "function"
    },
    {
      "inputs": [
        {
          "internalType": "uint256",
          "name": "_count",
          "type": "uint256"
        }
      ],
      "name": "mintFaices",
      "outputs": [],
      "stateMutability": "payable",
      "type": "function"
    },
    {
      "inputs": [],
      "name": "name",
      "outputs": [
        {
          "internalType": "string",
          "name": "",
          "type": "string"
        }
      ],
      "stateMutability": "view",
      "type": "function"
    },
    {
      "inputs": [],
      "name": "owner",
      "outputs": [
        {
          "internalType": "address",
          "name": "",
          "type": "address"
        }
      ],
      "stateMutability": "view",
      "type": "function"
    },
    {
      "inputs": [
        {
          "internalType": "uint256",
          "name": "tokenId",
          "type": "uint256"
        }
      ],
      "name": "ownerOf",
      "outputs": [
        {
          "internalType": "address",
          "name": "",
          "type": "address"
        }
      ],
      "stateMutability": "view",
      "type": "function"
    },
    {
      "inputs": [],
      "name": "renounceOwnership",
      "outputs": [],
      "stateMutability": "nonpayable",
      "type": "function"
    },
    {
      "inputs": [
        {
          "internalType": "uint256",
          "name": "number",
          "type": "uint256"
        }
      ],
      "name": "reserveFaices",
      "outputs": [],
      "stateMutability": "nonpayable",
      "type": "function"
    },
    {
      "inputs": [
        {
          "internalType": "address",
          "name": "from",
          "type": "address"
        },
        {
          "internalType": "address",
          "name": "to",
          "type": "address"
        },
        {
          "internalType": "uint256",
          "name": "tokenId",
          "type": "uint256"
        }
      ],
      "name": "safeTransferFrom",
      "outputs": [],
      "stateMutability": "nonpayable",
      "type": "function"
    },
    {
      "inputs": [
        {
          "internalType": "address",
          "name": "from",
          "type": "address"
        },
        {
          "internalType": "address",
          "name": "to",
          "type": "address"
        },
        {
          "internalType": "uint256",
          "name": "tokenId",
          "type": "uint256"
        },
        {
          "internalType": "bytes",
          "name": "_data",
          "type": "bytes"
        }
      ],
      "name": "safeTransferFrom",
      "outputs": [],
      "stateMutability": "nonpayable",
      "type": "function"
    },
    {
      "inputs": [
        {
          "internalType": "address",
          "name": "operator",
          "type": "address"
        },
        {
          "internalType": "bool",
          "name": "approved",
          "type": "bool"
        }
      ],
      "name": "setApprovalForAll",
      "outputs": [],
      "stateMutability": "nonpayable",
      "type": "function"
    },
    {
      "inputs": [
        {
          "internalType": "string",
          "name": "baseTokenURI",
          "type": "string"
        }
      ],
      "name": "setBaseURI",
      "outputs": [],
      "stateMutability": "nonpayable",
      "type": "function"
    },
    {
      "inputs": [
        {
          "internalType": "bytes4",
          "name": "interfaceId",
          "type": "bytes4"
        }
      ],
      "name": "supportsInterface",
      "outputs": [
        {
          "internalType": "bool",
          "name": "",
          "type": "bool"
        }
      ],
      "stateMutability": "view",
      "type": "function"
    },
    {
      "inputs": [],
      "name": "symbol",
      "outputs": [
        {
          "internalType": "string",
          "name": "",
          "type": "string"
        }
      ],
      "stateMutability": "view",
      "type": "function"
    },
    {
      "inputs": [
        {
          "internalType": "uint256",
          "name": "index",
          "type": "uint256"
        }
      ],
      "name": "tokenByIndex",
      "outputs": [
        {
          "internalType": "uint256",
          "name": "",
          "type": "uint256"
        }
      ],
      "stateMutability": "view",
      "type": "function"
    },
    {
      "inputs": [
        {
          "internalType": "address",
          "name": "owner",
          "type": "address"
        },
        {
          "internalType": "uint256",
          "name": "index",
          "type": "uint256"
        }
      ],
      "name": "tokenOfOwnerByIndex",
      "outputs": [
        {
          "internalType": "uint256",
          "name": "",
          "type": "uint256"
        }
      ],
      "stateMutability": "view",
      "type": "function"
    },
    {
      "inputs": [
        {
          "internalType": "uint256",
          "name": "tokenId",
          "type": "uint256"
        }
      ],
      "name": "tokenURI",
      "outputs": [
        {
          "internalType": "string",
          "name": "",
          "type": "string"
        }
      ],
      "stateMutability": "view",
      "type": "function"
    },
    {
      "inputs": [
        {
          "internalType": "address",
          "name": "_owner",
          "type": "address"
        }
      ],
      "name": "tokensOfOwner",
      "outputs": [
        {
          "internalType": "uint256[]",
          "name": "",
          "type": "uint256[]"
        }
      ],
      "stateMutability": "view",
      "type": "function"
    },
    {
      "inputs": [],
      "name": "totalSupply",
      "outputs": [
        {
          "internalType": "uint256",
          "name": "",
          "type": "uint256"
        }
      ],
      "stateMutability": "view",
      "type": "function"
    },
    {
      "inputs": [
        {
          "internalType": "address",
          "name": "from",
          "type": "address"
        },
        {
          "internalType": "address",
          "name": "to",
          "type": "address"
        },
        {
          "internalType": "uint256",
          "name": "tokenId",
          "type": "uint256"
        }
      ],
      "name": "transferFrom",
      "outputs": [],
      "stateMutability": "nonpayable",
      "type": "function"
    },
    {
      "inputs": [
        {
          "internalType": "address",
          "name": "newOwner",
          "type": "address"
        }
      ],
      "name": "transferOwnership",
      "outputs": [],
      "stateMutability": "nonpayable",
      "type": "function"
    },
    {
      "inputs": [],
      "name": "withdraw",
      "outputs": [],
      "stateMutability": "payable",
      "type": "function"
    },
    {
      "inputs": [
        {
          "internalType": "uint256",
          "name": "amount",
          "type": "uint256"
        },
        {
          "internalType": "address payable",
          "name": "to",
          "type": "address"
        }
      ],
      "name": "withdrawForGiveaway",
      "outputs": [],
      "stateMutability": "nonpayable",
      "type": "function"
    }
  ],
  "bytecode": "0x60806040526000600c60006101000a81548160ff0219169083151502179055503480156200002c57600080fd5b5060405162004d0a38038062004d0a8339818101604052810190620000529190620003ef565b6040518060400160405280600981526020017f4661696365732e696f00000000000000000000000000000000000000000000008152506040518060400160405280600981526020017f4641494345532e494f00000000000000000000000000000000000000000000008152508160009080519060200190620000d6929190620002cd565b508060019080519060200190620000ef929190620002cd565b50505062000112620001066200012a60201b60201c565b6200013260201b60201c565b6200012381620001f860201b60201c565b5062000627565b600033905090565b6000600a60009054906101000a900473ffffffffffffffffffffffffffffffffffffffff16905081600a60006101000a81548173ffffffffffffffffffffffffffffffffffffffff021916908373ffffffffffffffffffffffffffffffffffffffff1602179055508173ffffffffffffffffffffffffffffffffffffffff168173ffffffffffffffffffffffffffffffffffffffff167f8be0079c531659141344cd1fd0a4f28419497f9722a3daafe3b4186f6b6457e060405160405180910390a35050565b620002086200012a60201b60201c565b73ffffffffffffffffffffffffffffffffffffffff166200022e620002a360201b60201c565b73ffffffffffffffffffffffffffffffffffffffff161462000287576040517f08c379a00000000000000000000000000000000000000000000000000000000081526004016200027e906200045b565b60405180910390fd5b80600d90805190602001906200029f929190620002cd565b5050565b6000600a60009054906101000a900473ffffffffffffffffffffffffffffffffffffffff16905090565b828054620002db9062000523565b90600052602060002090601f016020900481019282620002ff57600085556200034b565b82601f106200031a57805160ff19168380011785556200034b565b828001600101855582156200034b579182015b828111156200034a5782518255916020019190600101906200032d565b5b5090506200035a91906200035e565b5090565b5b80821115620003795760008160009055506001016200035f565b5090565b6000620003946200038e84620004a6565b6200047d565b905082815260208101848484011115620003ad57600080fd5b620003ba848285620004ed565b509392505050565b600082601f830112620003d457600080fd5b8151620003e68482602086016200037d565b91505092915050565b6000602082840312156200040257600080fd5b600082015167ffffffffffffffff8111156200041d57600080fd5b6200042b84828501620003c2565b91505092915050565b600062000443602083620004dc565b91506200045082620005fe565b602082019050919050565b60006020820190508181036000830152620004768162000434565b9050919050565b6000620004896200049c565b905062000497828262000559565b919050565b6000604051905090565b600067ffffffffffffffff821115620004c457620004c3620005be565b5b620004cf82620005ed565b9050602081019050919050565b600082825260208201905092915050565b60005b838110156200050d578082015181840152602081019050620004f0565b838111156200051d576000848401525b50505050565b600060028204905060018216806200053c57607f821691505b602082108114156200055357620005526200058f565b5b50919050565b6200056482620005ed565b810181811067ffffffffffffffff82111715620005865762000585620005be565b5b80604052505050565b7f4e487b7100000000000000000000000000000000000000000000000000000000600052602260045260246000fd5b7f4e487b7100000000000000000000000000000000000000000000000000000000600052604160045260246000fd5b6000601f19601f8301169050919050565b7f4f776e61626c653a2063616c6c6572206973206e6f7420746865206f776e6572600082015250565b6146d380620006376000396000f3fe6080604052600436106101cd5760003560e01c80636352211e116100f757806395d89b4111610095578063c87b56dd11610064578063c87b56dd1461065a578063cfc86f7b14610697578063e985e9c5146106c2578063f2fde38b146106ff576101cd565b806395d89b41146105c1578063a22cb465146105ec578063b640fddb14610615578063b88d4fde14610631576101cd565b8063715018a6116100d1578063715018a6146105175780638462151c1461052e5780638d859f3e1461056b5780638da5cb5b14610596576101cd565b80636352211e1461047457806370a08231146104b157806370f58ede146104ee576101cd565b80632c2c852f1161016f57806342842e0e1161013e57806342842e0e146103bc5780634d7313a4146103e55780634f6ccce71461040e57806355f804b31461044b576101cd565b80632c2c852f1461031f5780632f745c591461034a57806332cb6b0c146103875780633ccfd60b146103b2576101cd565b8063095ea7b3116101ab578063095ea7b31461027757806309d42b30146102a057806318160ddd146102cb57806323b872dd146102f6576101cd565b806301ffc9a7146101d257806306fdde031461020f578063081812fc1461023a575b600080fd5b3480156101de57600080fd5b506101f960048036038101906101f49190612ff8565b610728565b60405161020691906136db565b60405180910390f35b34801561021b57600080fd5b506102246107a2565b60405161023191906136f6565b60405180910390f35b34801561024657600080fd5b50610261600480360381019061025c919061308b565b610834565b60405161026e9190613652565b60405180910390f35b34801561028357600080fd5b5061029e60048036038101906102999190612fbc565b6108b9565b005b3480156102ac57600080fd5b506102b56109d1565b6040516102c29190613a78565b60405180910390f35b3480156102d757600080fd5b506102e06109d6565b6040516102ed9190613a78565b60405180910390f35b34801561030257600080fd5b5061031d60048036038101906103189190612eb6565b6109e3565b005b34801561032b57600080fd5b50610334610a43565b60405161034191906136db565b60405180910390f35b34801561035657600080fd5b50610371600480360381019061036c9190612fbc565b610a56565b60405161037e9190613a78565b60405180910390f35b34801561039357600080fd5b5061039c610afb565b6040516103a99190613a78565b60405180910390f35b6103ba610b00565b005b3480156103c857600080fd5b506103e360048036038101906103de9190612eb6565b610c74565b005b3480156103f157600080fd5b5061040c600480360381019061040791906130b4565b610c94565b005b34801561041a57600080fd5b506104356004803603810190610430919061308b565b610d61565b6040516104429190613a78565b60405180910390f35b34801561045757600080fd5b50610472600480360381019061046d919061304a565b610df8565b005b34801561048057600080fd5b5061049b6004803603810190610496919061308b565b610e8e565b6040516104a89190613652565b60405180910390f35b3480156104bd57600080fd5b506104d860048036038101906104d39190612e51565b610f40565b6040516104e59190613a78565b60405180910390f35b3480156104fa57600080fd5b506105156004803603810190610510919061308b565b610ff8565b005b34801561052357600080fd5b5061052c611102565b005b34801561053a57600080fd5b5061055560048036038101906105509190612e51565b61118a565b60405161056291906136b9565b60405180910390f35b34801561057757600080fd5b50610580611284565b60405161058d9190613a78565b60405180910390f35b3480156105a257600080fd5b506105ab61128f565b6040516105b89190613652565b60405180910390f35b3480156105cd57600080fd5b506105d66112b9565b6040516105e391906136f6565b60405180910390f35b3480156105f857600080fd5b50610613600480360381019061060e9190612f80565b61134b565b005b61062f600480360381019061062a919061308b565b6114cc565b005b34801561063d57600080fd5b5061065860048036038101906106539190612f05565b611607565b005b34801561066657600080fd5b50610681600480360381019061067c919061308b565b611669565b60405161068e91906136f6565b60405180910390f35b3480156106a357600080fd5b506106ac611710565b6040516106b991906136f6565b60405180910390f35b3480156106ce57600080fd5b506106e960048036038101906106e49190612e7a565b61179e565b6040516106f691906136db565b60405180910390f35b34801561070b57600080fd5b5061072660048036038101906107219190612e51565b611832565b005b60007f780e9d63000000000000000000000000000000000000000000000000000000007bffffffffffffffffffffffffffffffffffffffffffffffffffffffff1916827bffffffffffffffffffffffffffffffffffffffffffffffffffffffff1916148061079b575061079a8261192a565b5b9050919050565b6060600080546107b190613d7e565b80601f01602080910402602001604051908101604052809291908181526020018280546107dd90613d7e565b801561082a5780601f106107ff5761010080835404028352916020019161082a565b820191906000526020600020905b81548152906001019060200180831161080d57829003601f168201915b5050505050905090565b600061083f82611a0c565b61087e576040517f08c379a000000000000000000000000000000000000000000000000000000000815260040161087590613938565b60405180910390fd5b6004600083815260200190815260200160002060009054906101000a900473ffffffffffffffffffffffffffffffffffffffff169050919050565b60006108c482610e8e565b90508073ffffffffffffffffffffffffffffffffffffffff168373ffffffffffffffffffffffffffffffffffffffff161415610935576040517f08c379a000000000000000000000000000000000000000000000000000000000815260040161092c906139d8565b60405180910390fd5b8073ffffffffffffffffffffffffffffffffffffffff16610954611a78565b73ffffffffffffffffffffffffffffffffffffffff16148061098357506109828161097d611a78565b61179e565b5b6109c2576040517f08c379a00000000000000000000000000000000000000000000000000000000081526004016109b990613898565b60405180910390fd5b6109cc8383611a80565b505050565b601081565b6000600880549050905090565b6109f46109ee611a78565b82611b39565b610a33576040517f08c379a0000000000000000000000000000000000000000000000000000000008152600401610a2a90613a18565b60405180910390fd5b610a3e838383611c17565b505050565b600c60009054906101000a900460ff1681565b6000610a6183610f40565b8210610aa2576040517f08c379a0000000000000000000000000000000000000000000000000000000008152600401610a9990613718565b60405180910390fd5b600660008473ffffffffffffffffffffffffffffffffffffffff1673ffffffffffffffffffffffffffffffffffffffff168152602001908152602001600020600083815260200190815260200160002054905092915050565b606481565b610b08611a78565b73ffffffffffffffffffffffffffffffffffffffff16610b2661128f565b73ffffffffffffffffffffffffffffffffffffffff1614610b7c576040517f08c379a0000000000000000000000000000000000000000000000000000000008152600401610b7390613958565b60405180910390fd5b600047905060008111610bc4576040517f08c379a0000000000000000000000000000000000000000000000000000000008152600401610bbb90613918565b60405180910390fd5b60003373ffffffffffffffffffffffffffffffffffffffff1682604051610bea9061363d565b60006040518083038185875af1925050503d8060008114610c27576040519150601f19603f3d011682016040523d82523d6000602084013e610c2c565b606091505b5050905080610c70576040517f08c379a0000000000000000000000000000000000000000000000000000000008152600401610c67906139f8565b60405180910390fd5b5050565b610c8f83838360405180602001604052806000815250611607565b505050565b610c9c611a78565b73ffffffffffffffffffffffffffffffffffffffff16610cba61128f565b73ffffffffffffffffffffffffffffffffffffffff1614610d10576040517f08c379a0000000000000000000000000000000000000000000000000000000008152600401610d0790613958565b60405180910390fd5b60004711610d53576040517f08c379a0000000000000000000000000000000000000000000000000000000008152600401610d4a906137d8565b60405180910390fd5b610d5d8183611e73565b5050565b6000610d6b6109d6565b8210610dac576040517f08c379a0000000000000000000000000000000000000000000000000000000008152600401610da390613a38565b60405180910390fd5b60088281548110610de6577f4e487b7100000000000000000000000000000000000000000000000000000000600052603260045260246000fd5b90600052602060002001549050919050565b610e00611a78565b73ffffffffffffffffffffffffffffffffffffffff16610e1e61128f565b73ffffffffffffffffffffffffffffffffffffffff1614610e74576040517f08c379a0000000000000000000000000000000000000000000000000000000008152600401610e6b90613958565b60405180910390fd5b80600d9080519060200190610e8a929190612c60565b5050565b6000806002600084815260200190815260200160002060009054906101000a900473ffffffffffffffffffffffffffffffffffffffff169050600073ffffffffffffffffffffffffffffffffffffffff168173ffffffffffffffffffffffffffffffffffffffff161415610f37576040517f08c379a0000000000000000000000000000000000000000000000000000000008152600401610f2e906138d8565b60405180910390fd5b80915050919050565b60008073ffffffffffffffffffffffffffffffffffffffff168273ffffffffffffffffffffffffffffffffffffffff161415610fb1576040517f08c379a0000000000000000000000000000000000000000000000000000000008152600401610fa8906138b8565b60405180910390fd5b600360008373ffffffffffffffffffffffffffffffffffffffff1673ffffffffffffffffffffffffffffffffffffffff168152602001908152602001600020549050919050565b611000611a78565b73ffffffffffffffffffffffffffffffffffffffff1661101e61128f565b73ffffffffffffffffffffffffffffffffffffffff1614611074576040517f08c379a000000000000000000000000000000000000000000000000000000000815260040161106b90613958565b60405180910390fd5b6000611080600b611f67565b905060646110978383611f7590919063ffffffff16565b106110d7576040517f08c379a00000000000000000000000000000000000000000000000000000000081526004016110ce90613818565b60405180910390fd5b60005b828110156110fd576110ea611f8b565b80806110f590613de1565b9150506110da565b505050565b61110a611a78565b73ffffffffffffffffffffffffffffffffffffffff1661112861128f565b73ffffffffffffffffffffffffffffffffffffffff161461117e576040517f08c379a000000000000000000000000000000000000000000000000000000000815260040161117590613958565b60405180910390fd5b6111886000611fe7565b565b6060600061119783610f40565b905060008167ffffffffffffffff8111156111db577f4e487b7100000000000000000000000000000000000000000000000000000000600052604160045260246000fd5b6040519080825280602002602001820160405280156112095781602001602082028036833780820191505090505b50905060005b82811015611279576112218582610a56565b82828151811061125a577f4e487b7100000000000000000000000000000000000000000000000000000000600052603260045260246000fd5b602002602001018181525050808061127190613de1565b91505061120f565b508092505050919050565b66038d7ea4c6800081565b6000600a60009054906101000a900473ffffffffffffffffffffffffffffffffffffffff16905090565b6060600180546112c890613d7e565b80601f01602080910402602001604051908101604052809291908181526020018280546112f490613d7e565b80156113415780601f1061131657610100808354040283529160200191611341565b820191906000526020600020905b81548152906001019060200180831161132457829003601f168201915b5050505050905090565b611353611a78565b73ffffffffffffffffffffffffffffffffffffffff168273ffffffffffffffffffffffffffffffffffffffff1614156113c1576040517f08c379a00000000000000000000000000000000000000000000000000000000081526004016113b8906137b8565b60405180910390fd5b80600560006113ce611a78565b73ffffffffffffffffffffffffffffffffffffffff1673ffffffffffffffffffffffffffffffffffffffff16815260200190815260200160002060008473ffffffffffffffffffffffffffffffffffffffff1673ffffffffffffffffffffffffffffffffffffffff16815260200190815260200160002060006101000a81548160ff0219169083151502179055508173ffffffffffffffffffffffffffffffffffffffff1661147b611a78565b73ffffffffffffffffffffffffffffffffffffffff167f17307eab39ab6107e8899845ad3d59bd9653f200f220920489ca2b5937696c31836040516114c091906136db565b60405180910390a35050565b60006114d8600b611f67565b905060646114ef8383611f7590919063ffffffff16565b1115611530576040517f08c379a000000000000000000000000000000000000000000000000000000000815260040161152790613a58565b60405180910390fd5b600082118015611541575060108211155b611580576040517f08c379a0000000000000000000000000000000000000000000000000000000008152600401611577906139b8565b60405180910390fd5b61159a8266038d7ea4c680006120ad90919063ffffffff16565b3410156115dc576040517f08c379a00000000000000000000000000000000000000000000000000000000081526004016115d390613878565b60405180910390fd5b60005b82811015611602576115ef611f8b565b80806115fa90613de1565b9150506115df565b505050565b611618611612611a78565b83611b39565b611657576040517f08c379a000000000000000000000000000000000000000000000000000000000815260040161164e90613a18565b60405180910390fd5b611663848484846120c3565b50505050565b606061167482611a0c565b6116b3576040517f08c379a00000000000000000000000000000000000000000000000000000000081526004016116aa90613998565b60405180910390fd5b60006116bd61211f565b905060008151116116dd5760405180602001604052806000815250611708565b806116e7846121b1565b6040516020016116f8929190613619565b6040516020818303038152906040525b915050919050565b600d805461171d90613d7e565b80601f016020809104026020016040519081016040528092919081815260200182805461174990613d7e565b80156117965780601f1061176b57610100808354040283529160200191611796565b820191906000526020600020905b81548152906001019060200180831161177957829003601f168201915b505050505081565b6000600560008473ffffffffffffffffffffffffffffffffffffffff1673ffffffffffffffffffffffffffffffffffffffff16815260200190815260200160002060008373ffffffffffffffffffffffffffffffffffffffff1673ffffffffffffffffffffffffffffffffffffffff16815260200190815260200160002060009054906101000a900460ff16905092915050565b61183a611a78565b73ffffffffffffffffffffffffffffffffffffffff1661185861128f565b73ffffffffffffffffffffffffffffffffffffffff16146118ae576040517f08c379a00000000000000000000000000000000000000000000000000000000081526004016118a590613958565b60405180910390fd5b600073ffffffffffffffffffffffffffffffffffffffff168173ffffffffffffffffffffffffffffffffffffffff16141561191e576040517f08c379a000000000000000000000000000000000000000000000000000000000815260040161191590613758565b60405180910390fd5b61192781611fe7565b50565b60007f80ac58cd000000000000000000000000000000000000000000000000000000007bffffffffffffffffffffffffffffffffffffffffffffffffffffffff1916827bffffffffffffffffffffffffffffffffffffffffffffffffffffffff191614806119f557507f5b5e139f000000000000000000000000000000000000000000000000000000007bffffffffffffffffffffffffffffffffffffffffffffffffffffffff1916827bffffffffffffffffffffffffffffffffffffffffffffffffffffffff1916145b80611a055750611a048261235e565b5b9050919050565b60008073ffffffffffffffffffffffffffffffffffffffff166002600084815260200190815260200160002060009054906101000a900473ffffffffffffffffffffffffffffffffffffffff1673ffffffffffffffffffffffffffffffffffffffff1614159050919050565b600033905090565b816004600083815260200190815260200160002060006101000a81548173ffffffffffffffffffffffffffffffffffffffff021916908373ffffffffffffffffffffffffffffffffffffffff160217905550808273ffffffffffffffffffffffffffffffffffffffff16611af383610e8e565b73ffffffffffffffffffffffffffffffffffffffff167f8c5be1e5ebec7d5bd14f71427d1e84f3dd0314c0f7b2291e5b200ac8c7c3b92560405160405180910390a45050565b6000611b4482611a0c565b611b83576040517f08c379a0000000000000000000000000000000000000000000000000000000008152600401611b7a90613858565b60405180910390fd5b6000611b8e83610e8e565b90508073ffffffffffffffffffffffffffffffffffffffff168473ffffffffffffffffffffffffffffffffffffffff161480611bfd57508373ffffffffffffffffffffffffffffffffffffffff16611be584610834565b73ffffffffffffffffffffffffffffffffffffffff16145b80611c0e5750611c0d818561179e565b5b91505092915050565b8273ffffffffffffffffffffffffffffffffffffffff16611c3782610e8e565b73ffffffffffffffffffffffffffffffffffffffff1614611c8d576040517f08c379a0000000000000000000000000000000000000000000000000000000008152600401611c8490613978565b60405180910390fd5b600073ffffffffffffffffffffffffffffffffffffffff168273ffffffffffffffffffffffffffffffffffffffff161415611cfd576040517f08c379a0000000000000000000000000000000000000000000000000000000008152600401611cf490613798565b60405180910390fd5b611d088383836123c8565b611d13600082611a80565b6001600360008573ffffffffffffffffffffffffffffffffffffffff1673ffffffffffffffffffffffffffffffffffffffff1681526020019081526020016000206000828254611d639190613c82565b925050819055506001600360008473ffffffffffffffffffffffffffffffffffffffff1673ffffffffffffffffffffffffffffffffffffffff1681526020019081526020016000206000828254611dba9190613ba1565b92505081905550816002600083815260200190815260200160002060006101000a81548173ffffffffffffffffffffffffffffffffffffffff021916908373ffffffffffffffffffffffffffffffffffffffff160217905550808273ffffffffffffffffffffffffffffffffffffffff168473ffffffffffffffffffffffffffffffffffffffff167fddf252ad1be2c89b69c2b068fc378daa952ba7f163c4a11628f55a4df523b3ef60405160405180910390a4505050565b80471015611eb6576040517f08c379a0000000000000000000000000000000000000000000000000000000008152600401611ead90613838565b60405180910390fd5b60008273ffffffffffffffffffffffffffffffffffffffff1682604051611edc9061363d565b60006040518083038185875af1925050503d8060008114611f19576040519150601f19603f3d011682016040523d82523d6000602084013e611f1e565b606091505b5050905080611f62576040517f08c379a0000000000000000000000000000000000000000000000000000000008152600401611f59906137f8565b60405180910390fd5b505050565b600081600001549050919050565b60008183611f839190613ba1565b905092915050565b6000611f97600b611f67565b9050611fa333826124dc565b611fad600b6124fa565b7f5add770a77b0412869e030129d1a535625d9313da62db3066cfffe63b49afeec81604051611fdc9190613a78565b60405180910390a150565b6000600a60009054906101000a900473ffffffffffffffffffffffffffffffffffffffff16905081600a60006101000a81548173ffffffffffffffffffffffffffffffffffffffff021916908373ffffffffffffffffffffffffffffffffffffffff1602179055508173ffffffffffffffffffffffffffffffffffffffff168173ffffffffffffffffffffffffffffffffffffffff167f8be0079c531659141344cd1fd0a4f28419497f9722a3daafe3b4186f6b6457e060405160405180910390a35050565b600081836120bb9190613c28565b905092915050565b6120ce848484611c17565b6120da84848484612510565b612119576040517f08c379a000000000000000000000000000000000000000000000000000000000815260040161211090613738565b60405180910390fd5b50505050565b6060600d805461212e90613d7e565b80601f016020809104026020016040519081016040528092919081815260200182805461215a90613d7e565b80156121a75780601f1061217c576101008083540402835291602001916121a7565b820191906000526020600020905b81548152906001019060200180831161218a57829003601f168201915b5050505050905090565b606060008214156121f9576040518060400160405280600181526020017f30000000000000000000000000000000000000000000000000000000000000008152509050612359565b600082905060005b6000821461222b57808061221490613de1565b915050600a826122249190613bf7565b9150612201565b60008167ffffffffffffffff81111561226d577f4e487b7100000000000000000000000000000000000000000000000000000000600052604160045260246000fd5b6040519080825280601f01601f19166020018201604052801561229f5781602001600182028036833780820191505090505b5090505b60008514612352576001826122b89190613c82565b9150600a856122c79190613e2a565b60306122d39190613ba1565b60f81b81838151811061230f577f4e487b7100000000000000000000000000000000000000000000000000000000600052603260045260246000fd5b60200101907effffffffffffffffffffffffffffffffffffffffffffffffffffffffffffff1916908160001a905350600a8561234b9190613bf7565b94506122a3565b8093505050505b919050565b60007f01ffc9a7000000000000000000000000000000000000000000000000000000007bffffffffffffffffffffffffffffffffffffffffffffffffffffffff1916827bffffffffffffffffffffffffffffffffffffffffffffffffffffffff1916149050919050565b6123d38383836126a7565b600073ffffffffffffffffffffffffffffffffffffffff168373ffffffffffffffffffffffffffffffffffffffff16141561241657612411816126ac565b612455565b8173ffffffffffffffffffffffffffffffffffffffff168373ffffffffffffffffffffffffffffffffffffffff16146124545761245383826126f5565b5b5b600073ffffffffffffffffffffffffffffffffffffffff168273ffffffffffffffffffffffffffffffffffffffff1614156124985761249381612862565b6124d7565b8273ffffffffffffffffffffffffffffffffffffffff168273ffffffffffffffffffffffffffffffffffffffff16146124d6576124d582826129a5565b5b5b505050565b6124f6828260405180602001604052806000815250612a24565b5050565b6001816000016000828254019250508190555050565b60006125318473ffffffffffffffffffffffffffffffffffffffff16612a7f565b1561269a578373ffffffffffffffffffffffffffffffffffffffff1663150b7a0261255a611a78565b8786866040518563ffffffff1660e01b815260040161257c949392919061366d565b602060405180830381600087803b15801561259657600080fd5b505af19250505080156125c757506040513d601f19601f820116820180604052508101906125c49190613021565b60015b61264a573d80600081146125f7576040519150601f19603f3d011682016040523d82523d6000602084013e6125fc565b606091505b50600081511415612642576040517f08c379a000000000000000000000000000000000000000000000000000000000815260040161263990613738565b60405180910390fd5b805181602001fd5b63150b7a0260e01b7bffffffffffffffffffffffffffffffffffffffffffffffffffffffff1916817bffffffffffffffffffffffffffffffffffffffffffffffffffffffff19161491505061269f565b600190505b949350505050565b505050565b6008805490506009600083815260200190815260200160002081905550600881908060018154018082558091505060019003906000526020600020016000909190919091505550565b6000600161270284610f40565b61270c9190613c82565b90506000600760008481526020019081526020016000205490508181146127f1576000600660008673ffffffffffffffffffffffffffffffffffffffff1673ffffffffffffffffffffffffffffffffffffffff168152602001908152602001600020600084815260200190815260200160002054905080600660008773ffffffffffffffffffffffffffffffffffffffff1673ffffffffffffffffffffffffffffffffffffffff168152602001908152602001600020600084815260200190815260200160002081905550816007600083815260200190815260200160002081905550505b6007600084815260200190815260200160002060009055600660008573ffffffffffffffffffffffffffffffffffffffff1673ffffffffffffffffffffffffffffffffffffffff16815260200190815260200160002060008381526020019081526020016000206000905550505050565b600060016008805490506128769190613c82565b90506000600960008481526020019081526020016000205490506000600883815481106128cc577f4e487b7100000000000000000000000000000000000000000000000000000000600052603260045260246000fd5b906000526020600020015490508060088381548110612914577f4e487b7100000000000000000000000000000000000000000000000000000000600052603260045260246000fd5b906000526020600020018190555081600960008381526020019081526020016000208190555060096000858152602001908152602001600020600090556008805480612989577f4e487b7100000000000000000000000000000000000000000000000000000000600052603160045260246000fd5b6001900381819060005260206000200160009055905550505050565b60006129b083610f40565b905081600660008573ffffffffffffffffffffffffffffffffffffffff1673ffffffffffffffffffffffffffffffffffffffff168152602001908152602001600020600083815260200190815260200160002081905550806007600084815260200190815260200160002081905550505050565b612a2e8383612a92565b612a3b6000848484612510565b612a7a576040517f08c379a0000000000000000000000000000000000000000000000000000000008152600401612a7190613738565b60405180910390fd5b505050565b600080823b905060008111915050919050565b600073ffffffffffffffffffffffffffffffffffffffff168273ffffffffffffffffffffffffffffffffffffffff161415612b02576040517f08c379a0000000000000000000000000000000000000000000000000000000008152600401612af9906138f8565b60405180910390fd5b612b0b81611a0c565b15612b4b576040517f08c379a0000000000000000000000000000000000000000000000000000000008152600401612b4290613778565b60405180910390fd5b612b57600083836123c8565b6001600360008473ffffffffffffffffffffffffffffffffffffffff1673ffffffffffffffffffffffffffffffffffffffff1681526020019081526020016000206000828254612ba79190613ba1565b92505081905550816002600083815260200190815260200160002060006101000a81548173ffffffffffffffffffffffffffffffffffffffff021916908373ffffffffffffffffffffffffffffffffffffffff160217905550808273ffffffffffffffffffffffffffffffffffffffff16600073ffffffffffffffffffffffffffffffffffffffff167fddf252ad1be2c89b69c2b068fc378daa952ba7f163c4a11628f55a4df523b3ef60405160405180910390a45050565b828054612c6c90613d7e565b90600052602060002090601f016020900481019282612c8e5760008555612cd5565b82601f10612ca757805160ff1916838001178555612cd5565b82800160010185558215612cd5579182015b82811115612cd4578251825591602001919060010190612cb9565b5b509050612ce29190612ce6565b5090565b5b80821115612cff576000816000905550600101612ce7565b5090565b6000612d16612d1184613ab8565b613a93565b905082815260208101848484011115612d2e57600080fd5b612d39848285613d3c565b509392505050565b6000612d54612d4f84613ae9565b613a93565b905082815260208101848484011115612d6c57600080fd5b612d77848285613d3c565b509392505050565b600081359050612d8e8161462a565b92915050565b600081359050612da381614641565b92915050565b600081359050612db881614658565b92915050565b600081359050612dcd8161466f565b92915050565b600081519050612de28161466f565b92915050565b600082601f830112612df957600080fd5b8135612e09848260208601612d03565b91505092915050565b600082601f830112612e2357600080fd5b8135612e33848260208601612d41565b91505092915050565b600081359050612e4b81614686565b92915050565b600060208284031215612e6357600080fd5b6000612e7184828501612d7f565b91505092915050565b60008060408385031215612e8d57600080fd5b6000612e9b85828601612d7f565b9250506020612eac85828601612d7f565b9150509250929050565b600080600060608486031215612ecb57600080fd5b6000612ed986828701612d7f565b9350506020612eea86828701612d7f565b9250506040612efb86828701612e3c565b9150509250925092565b60008060008060808587031215612f1b57600080fd5b6000612f2987828801612d7f565b9450506020612f3a87828801612d7f565b9350506040612f4b87828801612e3c565b925050606085013567ffffffffffffffff811115612f6857600080fd5b612f7487828801612de8565b91505092959194509250565b60008060408385031215612f9357600080fd5b6000612fa185828601612d7f565b9250506020612fb285828601612da9565b9150509250929050565b60008060408385031215612fcf57600080fd5b6000612fdd85828601612d7f565b9250506020612fee85828601612e3c565b9150509250929050565b60006020828403121561300a57600080fd5b600061301884828501612dbe565b91505092915050565b60006020828403121561303357600080fd5b600061304184828501612dd3565b91505092915050565b60006020828403121561305c57600080fd5b600082013567ffffffffffffffff81111561307657600080fd5b61308284828501612e12565b91505092915050565b60006020828403121561309d57600080fd5b60006130ab84828501612e3c565b91505092915050565b600080604083850312156130c757600080fd5b60006130d585828601612e3c565b92505060206130e685828601612d94565b9150509250929050565b60006130fc83836135fb565b60208301905092915050565b61311181613cb6565b82525050565b600061312282613b2a565b61312c8185613b58565b935061313783613b1a565b8060005b8381101561316857815161314f88826130f0565b975061315a83613b4b565b92505060018101905061313b565b5085935050505092915050565b61317e81613cda565b82525050565b600061318f82613b35565b6131998185613b69565b93506131a9818560208601613d4b565b6131b281613f17565b840191505092915050565b60006131c882613b40565b6131d28185613b85565b93506131e2818560208601613d4b565b6131eb81613f17565b840191505092915050565b600061320182613b40565b61320b8185613b96565b935061321b818560208601613d4b565b80840191505092915050565b6000613234602b83613b85565b915061323f82613f28565b604082019050919050565b6000613257603283613b85565b915061326282613f77565b604082019050919050565b600061327a602683613b85565b915061328582613fc6565b604082019050919050565b600061329d601c83613b85565b91506132a882614015565b602082019050919050565b60006132c0602483613b85565b91506132cb8261403e565b604082019050919050565b60006132e3601983613b85565b91506132ee8261408d565b602082019050919050565b6000613306601483613b85565b9150613311826140b6565b602082019050919050565b6000613329603a83613b85565b9150613334826140df565b604082019050919050565b600061334c602183613b85565b91506133578261412e565b604082019050919050565b600061336f601d83613b85565b915061337a8261417d565b602082019050919050565b6000613392602c83613b85565b915061339d826141a6565b604082019050919050565b60006133b5602483613b85565b91506133c0826141f5565b604082019050919050565b60006133d8603883613b85565b91506133e382614244565b604082019050919050565b60006133fb602a83613b85565b915061340682614293565b604082019050919050565b600061341e602983613b85565b9150613429826142e2565b604082019050919050565b6000613441602083613b85565b915061344c82614331565b602082019050919050565b6000613464601983613b85565b915061346f8261435a565b602082019050919050565b6000613487602c83613b85565b915061349282614383565b604082019050919050565b60006134aa602083613b85565b91506134b5826143d2565b602082019050919050565b60006134cd602983613b85565b91506134d8826143fb565b604082019050919050565b60006134f0602f83613b85565b91506134fb8261444a565b604082019050919050565b6000613513602783613b85565b915061351e82614499565b604082019050919050565b6000613536602183613b85565b9150613541826144e8565b604082019050919050565b6000613559600083613b7a565b915061356482614537565b600082019050919050565b600061357c601083613b85565b91506135878261453a565b602082019050919050565b600061359f603183613b85565b91506135aa82614563565b604082019050919050565b60006135c2602c83613b85565b91506135cd826145b2565b604082019050919050565b60006135e5601883613b85565b91506135f082614601565b602082019050919050565b61360481613d32565b82525050565b61361381613d32565b82525050565b600061362582856131f6565b915061363182846131f6565b91508190509392505050565b60006136488261354c565b9150819050919050565b60006020820190506136676000830184613108565b92915050565b60006080820190506136826000830187613108565b61368f6020830186613108565b61369c604083018561360a565b81810360608301526136ae8184613184565b905095945050505050565b600060208201905081810360008301526136d38184613117565b905092915050565b60006020820190506136f06000830184613175565b92915050565b6000602082019050818103600083015261371081846131bd565b905092915050565b6000602082019050818103600083015261373181613227565b9050919050565b600060208201905081810360008301526137518161324a565b9050919050565b600060208201905081810360008301526137718161326d565b9050919050565b6000602082019050818103600083015261379181613290565b9050919050565b600060208201905081810360008301526137b1816132b3565b9050919050565b600060208201905081810360008301526137d1816132d6565b9050919050565b600060208201905081810360008301526137f1816132f9565b9050919050565b600060208201905081810360008301526138118161331c565b9050919050565b600060208201905081810360008301526138318161333f565b9050919050565b6000602082019050818103600083015261385181613362565b9050919050565b6000602082019050818103600083015261387181613385565b9050919050565b60006020820190508181036000830152613891816133a8565b9050919050565b600060208201905081810360008301526138b1816133cb565b9050919050565b600060208201905081810360008301526138d1816133ee565b9050919050565b600060208201905081810360008301526138f181613411565b9050919050565b6000602082019050818103600083015261391181613434565b9050919050565b6000602082019050818103600083015261393181613457565b9050919050565b600060208201905081810360008301526139518161347a565b9050919050565b600060208201905081810360008301526139718161349d565b9050919050565b60006020820190508181036000830152613991816134c0565b9050919050565b600060208201905081810360008301526139b1816134e3565b9050919050565b600060208201905081810360008301526139d181613506565b9050919050565b600060208201905081810360008301526139f181613529565b9050919050565b60006020820190508181036000830152613a118161356f565b9050919050565b60006020820190508181036000830152613a3181613592565b9050919050565b60006020820190508181036000830152613a51816135b5565b9050919050565b60006020820190508181036000830152613a71816135d8565b9050919050565b6000602082019050613a8d600083018461360a565b92915050565b6000613a9d613aae565b9050613aa98282613db0565b919050565b6000604051905090565b600067ffffffffffffffff821115613ad357613ad2613ee8565b5b613adc82613f17565b9050602081019050919050565b600067ffffffffffffffff821115613b0457613b03613ee8565b5b613b0d82613f17565b9050602081019050919050565b6000819050602082019050919050565b600081519050919050565b600081519050919050565b600081519050919050565b6000602082019050919050565b600082825260208201905092915050565b600082825260208201905092915050565b600081905092915050565b600082825260208201905092915050565b600081905092915050565b6000613bac82613d32565b9150613bb783613d32565b9250827fffffffffffffffffffffffffffffffffffffffffffffffffffffffffffffffff03821115613bec57613beb613e5b565b5b828201905092915050565b6000613c0282613d32565b9150613c0d83613d32565b925082613c1d57613c1c613e8a565b5b828204905092915050565b6000613c3382613d32565b9150613c3e83613d32565b9250817fffffffffffffffffffffffffffffffffffffffffffffffffffffffffffffffff0483118215151615613c7757613c76613e5b565b5b828202905092915050565b6000613c8d82613d32565b9150613c9883613d32565b925082821015613cab57613caa613e5b565b5b828203905092915050565b6000613cc182613d12565b9050919050565b6000613cd382613d12565b9050919050565b60008115159050919050565b60007fffffffff0000000000000000000000000000000000000000000000000000000082169050919050565b600073ffffffffffffffffffffffffffffffffffffffff82169050919050565b6000819050919050565b82818337600083830152505050565b60005b83811015613d69578082015181840152602081019050613d4e565b83811115613d78576000848401525b50505050565b60006002820490506001821680613d9657607f821691505b60208210811415613daa57613da9613eb9565b5b50919050565b613db982613f17565b810181811067ffffffffffffffff82111715613dd857613dd7613ee8565b5b80604052505050565b6000613dec82613d32565b91507fffffffffffffffffffffffffffffffffffffffffffffffffffffffffffffffff821415613e1f57613e1e613e5b565b5b600182019050919050565b6000613e3582613d32565b9150613e4083613d32565b925082613e5057613e4f613e8a565b5b828206905092915050565b7f4e487b7100000000000000000000000000000000000000000000000000000000600052601160045260246000fd5b7f4e487b7100000000000000000000000000000000000000000000000000000000600052601260045260246000fd5b7f4e487b7100000000000000000000000000000000000000000000000000000000600052602260045260246000fd5b7f4e487b7100000000000000000000000000000000000000000000000000000000600052604160045260246000fd5b6000601f19601f8301169050919050565b7f455243373231456e756d657261626c653a206f776e657220696e646578206f7560008201527f74206f6620626f756e6473000000000000000000000000000000000000000000602082015250565b7f4552433732313a207472616e7366657220746f206e6f6e20455243373231526560008201527f63656976657220696d706c656d656e7465720000000000000000000000000000602082015250565b7f4f776e61626c653a206e6577206f776e657220697320746865207a65726f206160008201527f6464726573730000000000000000000000000000000000000000000000000000602082015250565b7f4552433732313a20746f6b656e20616c7265616479206d696e74656400000000600082015250565b7f4552433732313a207472616e7366657220746f20746865207a65726f2061646460008201527f7265737300000000000000000000000000000000000000000000000000000000602082015250565b7f4552433732313a20617070726f766520746f2063616c6c657200000000000000600082015250565b7f496e73756666696369656e742062616c616e6365000000000000000000000000600082015250565b7f416464726573733a20756e61626c6520746f2073656e642076616c75652c207260008201527f6563697069656e74206d61792068617665207265766572746564000000000000602082015250565b7f4e6f7420656e6f75676820466169636573206c65667420746f2072657365727660008201527f6500000000000000000000000000000000000000000000000000000000000000602082015250565b7f416464726573733a20696e73756666696369656e742062616c616e6365000000600082015250565b7f4552433732313a206f70657261746f7220717565727920666f72206e6f6e657860008201527f697374656e7420746f6b656e0000000000000000000000000000000000000000602082015250565b7f4e6f7420656e6f75676820657468657220746f2070757263686173652046616960008201527f6365732e00000000000000000000000000000000000000000000000000000000602082015250565b7f4552433732313a20617070726f76652063616c6c6572206973206e6f74206f7760008201527f6e6572206e6f7220617070726f76656420666f7220616c6c0000000000000000602082015250565b7f4552433732313a2062616c616e636520717565727920666f7220746865207a6560008201527f726f206164647265737300000000000000000000000000000000000000000000602082015250565b7f4552433732313a206f776e657220717565727920666f72206e6f6e657869737460008201527f656e7420746f6b656e0000000000000000000000000000000000000000000000602082015250565b7f4552433732313a206d696e7420746f20746865207a65726f2061646472657373600082015250565b7f4e6f206574686572206c65667420746f20776974686472617700000000000000600082015250565b7f4552433732313a20617070726f76656420717565727920666f72206e6f6e657860008201527f697374656e7420746f6b656e0000000000000000000000000000000000000000602082015250565b7f4f776e61626c653a2063616c6c6572206973206e6f7420746865206f776e6572600082015250565b7f4552433732313a207472616e73666572206f6620746f6b656e2074686174206960008201527f73206e6f74206f776e0000000000000000000000000000000000000000000000602082015250565b7f4552433732314d657461646174613a2055524920717565727920666f72206e6f60008201527f6e6578697374656e7420746f6b656e0000000000000000000000000000000000602082015250565b7f43616e6e6f74206d696e7420737065636966696564206e756d626572206f662060008201527f4661696365732e00000000000000000000000000000000000000000000000000602082015250565b7f4552433732313a20617070726f76616c20746f2063757272656e74206f776e6560008201527f7200000000000000000000000000000000000000000000000000000000000000602082015250565b50565b7f5472616e73666572206661696c65642e00000000000000000000000000000000600082015250565b7f4552433732313a207472616e736665722063616c6c6572206973206e6f74206f60008201527f776e6572206e6f7220617070726f766564000000000000000000000000000000602082015250565b7f455243373231456e756d657261626c653a20676c6f62616c20696e646578206f60008201527f7574206f6620626f756e64730000000000000000000000000000000000000000602082015250565b7f4e6f7420656e6f7567682046616963657373206c656674210000000000000000600082015250565b61463381613cb6565b811461463e57600080fd5b50565b61464a81613cc8565b811461465557600080fd5b50565b61466181613cda565b811461466c57600080fd5b50565b61467881613ce6565b811461468357600080fd5b50565b61468f81613d32565b811461469a57600080fd5b5056fea264697066735822122093abe1958415ed8226b4f0e6384c7978b08a0809dd459f6674de85e3f3e8407064736f6c63430008040033",
  "linkReferences": {},
  "deployedLinkReferences": {}
}